:1000000009C021C020C01FC01EC01DC01CC01BC015
:100010001AC019C011241FBECFE9CDBF10E0A0E661
:10002000B0E0E8ECF1E002C005900D92AC38B10709
:10003000D9F710E0ACE8B0E001C01D92AE38B107CE
:10004000E1F734D0BFC0DCCFB89ABA9ABC9A089511
:10005000C29A8FE599E00197F1F700C00000C298BD
:100060008FE599E00197F1F700C000000895C49A68
:100070008FE599E00197F1F700C00000C4988FE583
:1000800099E00197F1F700C0000008951F93C09810
:1000900010E08FE599E00197F1F700C00000D8DF8C
:1000A0001F5F1830B1F7E3DF1F910895B998C19A27
:1000B000CBDFECDF86B390E08270907090938D0080
:1000C00080938C00009711F01BD0F4CF8FEB9DE54F
:1000D0000197F1F700C00000EDCF0F931F93082F99
:1000E00010E0002314F4C09A01C0C098B1DF1F5F74
:1000F000183011F0000FF5CFBADF1F910F9108955E
:10010000AF92BF92CF92DF92FF920F931F93CF9344
:10011000DF939ADFC0E6D0E08E010E5E1F4F89911B
:10012000DCDF8FEF96E7A1E081509040A040E1F73F
:1001300000C00000C017D10791F70F2EF6E4AF2ED4
:10014000F0E0BF2EF02DF50109958FEF91E8A4E1C5
:1001500081509040A040E1F700C00000FF240F2E26
:10016000F2E7CF2EF0E0DF2EF02D8601065E1F4F66
:1001700012C08991B2DF8FEF9CE0A2E081509040E5
:10018000A040E1F700C00000C017D10791F7F39439
:100190009F2D923011F0E601ECCFF50109958FEF1C
:1001A00091E8A4E181509040A040E1F700C0000038
:1001B000DF91CF911F910F91FF90DF90CF90BF9073
:1001C000AF900895F894FFCF0080C0E0F0F8FCFEF7
:1001D000FFFFFEFCF8F0E0C08000000080C0E0708F
:1001E000381C0E0703010000000103070E1C3870C5
:1001F000E0C08000FFFFFFFFFFFFFFFFFFFFFFFFEB
:10020000FFFFFFFFFFFFFFFFFFFFFFFFFFFFFFFFFE
:10021000FFFFFFFFFFFFFFFFFFFFFFFFFFFFFFFFEE
:10022000FFFFFFFFFFFFFFFFFFFFFFFFFFFFFFFFDE
:10023000FFFFFFFFFFFFFFFFFFFFFFFFFFFFFFFFCE
:00000001FF
